:020000040001F9
:10400000483B0020FD4101000F4201001142010028
:1040100000000000000000000000000000000000A0
:10402000000000000000000000000000134201003A
:1040300000000000000000001542010017420100CE
:104040001942010019420100194201001942010000
:104050001942010000000000FD8501001942010025
:1040600019420100194201001942010019420100E0
:1040700019420100194201001942010019420100D0
:1040800019420100CB6C01001942010019420100E4
:10409000ED6C010011850100AF9E01001942010085
:1040A0001942010019420100000000000000000058
:1040B0000000000000000000000000000000000000
:1040C00000F002F800F03FF80CA030C808382418BF
:1040D0002D18A246671EAB4654465D46AC4201D140
:1040E00000F031F87E460F3E0FCCB6460126334233
:1040F00000D0FB1AA246AB463343184704670000C2
:10410000246700000023002400250026103A01D374
:1041100078C1FBD8520700D330C100D50B6070477F
:1041200010B5782902D105F06BFF10BD732902D1BB
:1041300006F04EFA10BD002010BD1FB5C046C046A7
:104140001FBD10B510BD06F047FA1146FFF7F5FF89
:1041500000F027FE06F05FFA03B4FFF7F2FF03BC9E
:1041600006F064FA401E00BF00BF00BF00BF00BFE2
:1041700000BF00BF00BF00BF00BF00BF00BFF1D144
:1041800070470000401E00BF00BF00BF00BF00BF5F
:1041900000BF00BF00BF00BF00BF00BF00BFF1D124
:1041A00070470000401E00BF00BF00BF00BF00BF3F
:1041B00000BF00BF00BF00BF00BF00BF00BFF1D104
:1041C0007047000070B505460C46164602E00FCC5D
:1041D0000FC5103E102EFAD2082E02D303CC03C511
:1041E000083E042E07D301CC01C5361F03E0217819
:1041F0002970641C6D1C761EF9D270BD0A480268D5
:1042000003210A4302600948804709480047FEE746
:10421000FEE7FEE7FEE7FEE7FEE700000548064989
:10422000064A074B7047000024050040E9420100A0
:10423000C1400100482B0020483B002048330020AB
:104240004833002032483349086070473248008CB8
:10425000C0B2012812D13048808C0007000F00281E
:104260000CD12D48806AF0210840402806D12A4808
:10427000C06A0840002801D1012070470020FCE7F7
:104280002548008CC0B201282CD12348808C00071F
:10429000000F002826D12048806AF021084000281D
:1042A00006D11D48C06A0840002801D1012070478E
:1042B0001948806AF0210840102806D11648C06AC3
:1042C0000840002801D10120F1E71348806AF0215D
:1042D0000840302806D11048C06A0840002801D1A3
:1042E0000120E4E70020E2E710B5FFF7C9FF00284E
:1042F00005D00A480A494860C8130A498861FFF78F
:10430000A5FF002802D001200749886010BD0000E9
:104310000024F40000200020C00F00F0DFFF07C0E1
:1043200000050040006C00400006004030B513045A
:104330008C0023430524240707252D0264198500DA
:10434000635130BD70B504460D4616460F2000F08F
:1043500077FD32462946204604F046FB70BD70B515
:1043600004460D462A462146F748FFF7EBFF70BD8D
:1043700070B5F64801F024FA044600BF2546002D2A
:1043800006D000BFF2A2CD212846FFF7DBFF00BF19
:1043900000BFEE4801F026FA044600BF2546002D76
:1043A00006D000BFEAA2D0212846FFF7CBFF00BF0E
:1043B00000BF70BD70B58CB00446A1788900E74A93
:1043C000505805F013FFC6B2A1788900E34A50584F
:1043D00000231A46314604F02AFC054600BF2E464B
:1043E000002E06D100BFDAA2DD210020FFF7AAFFD0
:1043F00000BF00BFE079A17962790092019102903B
:10440000237920788000D6490A58D6A104A805F05F
:1044100093FD04A805F0EAFEC6B20023402231460F
:1044200004A804F004FC054600BF2E46002E06D169
:1044300000BFC7A2E5210020FFF784FF00BF00BF37
:104440000CB070BD70B5CC4805F0D0FEC5B20023ED
:104450001A462946C84804F0EAFB044600BF254630
:10446000002D06D100BFBAA2F0210020FFF76AFF9D
:1044700000BF00BFC14805F0B9FEC5B2002340220D
:104480002946BE4804F0D3FB044600BF2546002D54
:1044900006D100BFAEA2F2210020FFF753FF00BFFC
:1044A00000BF0020B649086070BD70B5B448006810
:1044B000401CB3490860B14805F098FEB04909783E
:1044C000401AC5B2AD49AE4A12688818002340228E
:1044D000294604F0ACFB044600BF2546002D07D159
:1044E00000BF9BA2FF2103310020FFF72BFF00BF7D
:1044F00000BF70BD10B504466079012806D1E2887E
:10450000214608319C4805F093FE08E060790328B5
:1045100005D1E28821460831984805F089FE10BD92
:1045200070B5044600252068002804D0022815D064
:1045300003281DD117E08549088992497EDF054689
:1045400000BF2E46002E07D000BF81A2FF212531DB
:104550003046FFF7F7FE00BF00BF0AE020460830F4
:10456000FFF728FF05E020460830FFF7C3FF00E013
:1045700000BF00BF70BD10B504462146734801F06E
:1045800015F810BD10B5082000F051FC092000F00E
:104590004EFC0F2000F04BFC10BD38B500BF0020D2
:1045A000794B05220221009002F0A4FB044600BFD3
:1045B0002546002D07D000BF65A2FF2157312846B0
:1045C000FFF7C0FE00BF00BF00BF38BD3EB500BF53
:1045D0006846007801090901491C00916846007885
:1045E000F02188431030009000BF042267A1684684
:1045F0007CDF044600BF2546002D07D000BF54A233
:10460000FF216B312846FFF79DFE00BF00BF002051
:1046100001900290FF219131684681804900C1805C
:1046200000210181FF219131418101A87ADF0446F7
:1046300000BF2546002D07D000BF45A2FF217531E0
:104640002846FFF77FFE00BF00BF3EBD30B5A1B0DA
:10465000052102914F48006800904F480178684654
:1046600081704E48017B407B000201436846818097
:104670004B480178684681713C2112A805F037FE4D
:1046800002201290012110A84173018202A9159104
:10469000002181841A910121818501A91C913C216D
:1046A00003A805F024FE01216846018569460B91A7
:1046B00003A912A801F067FD044600BF2546002D9E
:1046C00007D000BF22A2FF219E312846FFF73AFE05
:1046D00000BF00BF21B030BD70B53248006800286F
:1046E00003D102202F49086002E001202D49086013
:1046F00014212D4805F0FBFD00202B49087048606F
:10470000087228480068022804D1282008821E2048
:10471000488205E01920C00123490882B42048825C
:10472000214873DF044600BF2546002D07D000BF97
:1047300007A2FF21C4312846FFF704FE00BF00BFD7
:10474000082000F07DFB70BDEFBEADDECC21002067
:104750002E2E5C6D61696E2E630000000420002027
:1047600034200020257320253032782530327825FA
:1047700030327825303278000822002028220020AC
:104780004C20002044200020482200205275736BEA
:1047900000000000BCA60100B0210020C0A601005E
:1047A0005020002040200020F421002010B50446B5
:1047B00000BFFB4AFF21D0312046FFF7C3FD00BFF9
:1047C00010BD10B5044600BFF54AFF21DA3120467E
:1047D000FFF7B8FD00BF10BD30B587B01C2168469B
:1047E00005F085FD00200090052040040190801018
:1047F00002900321684601730021C18101210174E7
:1048000000200590E7480690684601F058FD0446F0
:1048100000BF2546002D07D000BFE14AFF21F1313E
:104820002846FFF78FFD00BF00BF07B030BD1E2038
:10483000DD4908800846807840084000401C8870A8
:104840000846807802218843D749887008468078D6
:104850001C2188430C30D449887008468078202178
:104860008843D14988700720C870102008717047AC
:1048700010B5044600BFCA4A4121C9002046FFF7CF
:1048800061FD00BF10BD7FB504F046FF044600BFC8
:104890002546002D06D000BFC14AC4492846FFF76F
:1048A00051FD00BF00BF6946012003F0CDFD044665
:1048B00000BF2546002D07D000BFB94ABB49091DDE
:1048C0002846FFF73FFD00BF00BFB9480290B94836
:1048D000039068460178817101A803F05FFB0446EC
:1048E00000BF2546002D07D000BFAD4AAF490C31AF
:1048F0002846FFF727FD00BF00BF7FBD70B5054606
:104900000024288817281ED006DC10280BD0112878
:104910001CD0132878D153E0192858D0392875D0E5
:1049200055287AD173E0092000F08AFA082000F0B7
:104930008CFA03F068FD044600209F490860A888AF
:104940009E4908806AE0FFF713FD67E0092000F048
:104950007CFA0020C0439949088003F060FD0446BA
:1049600000BF2646002E07D000BF8D4A9121890046
:104970003046FFF7E7FC00BF00BF03F0C4F9044670
:1049800000BF2646002E07D000BF854A4921C90036
:104990003046FFF7D7FC00BF00BF00F050FF0446D1
:1049A00000BF2646002E07D000BF7D4A7F49363122
:1049B0003046FFF7C7FC00BF00BFFFF78DFE2DE0BC
:1049C000794A00217D4800887FDF044626E0A879E7
:1049D000002818D178480068022802D1FFF77CFE31
:1049E00011E0082000F031FA00207349086003222A
:1049F00000210846FFF79AFC032200210120FFF75F
:104A000095FC31DF044609E007E0FFE700BF132112
:104A10006A48008876DF044600E000BF00BF00BFA0
:104A20002646002E07D000BF5D4A9F2189003046F0
:104A3000FFF788FC00BF00BF70BD70B504460D468F
:104A4000012D14D1052C02D0062C06D102E0FFF76F
:104A5000F9FC0BE0FFF729FD08E000BF504A53497D
:104A60007E312046FFF76EFC00BF00BF00BF70BD67
:104A700070B500BF5249012003F040FE044600BF5C
:104A80002546002D07D000BF454A484989312846B0
:104A9000FFF758FC00BF00BF00BF70BD70B500BF7E
:104AA0000023484A0421484803F06AFC044600BF3A
:104AB0002546002D07D000BF394A3C499931284688
:104AC000FFF740FC00BF00BF00BF70BD10B504463B
:104AD000204603F0DBF8204601F0C5FC21463B48A8
:104AE00000F073FD21463A4801F002F82046FFF736
:104AF00005FF10BD10B50446204604F06AFD10BD48
:104B000070B500BF002350223249082005F087F914
:104B1000054600BF2E46002E07D000BF204A23497D
:104B2000C4313046FFF70EFC00BF00BF00BF2A486B
:104B300005F0ABF9044600BF2546002D07D000BFA5
:104B4000174A1A49C9312846FFF7FCFB00BF00BFCE
:104B5000224805F0A3F9044600BF2546002D07D0E2
:104B600000BF0F4A1149CD312846FFF7EBFB00BFCC
:104B700000BF70BD70B51A4A0521012003F0D9FCB1
:104B8000044600BF2546002D07D000BF044A074950
:104B9000DA312846FFF7D6FB00BF00BF70BD00002A
:104BA00050470100C34701004420002015020000C7
:104BB000774501007148010040200020522000206C
:104BC000602400206606000054200020CC21002034
:104BD000B021002074240020CD4A0100F54A0100D4
:104BE0003572010070B53DDF044600BF2546002D3B
:104BF00007D000BF974A5F21C9002846FFF7A2FBF4
:104C000000BF00BF70BD30B587B09349934862DFE5
:104C1000044600BF2546002D06D000BF8D4A9049AE
:104C20002846FFF78FFB00BF00BF02A902318D4865
:104C300062DF044600BF2546002D07D000BF854A2D
:104C40008749C91C2846FFF77DFB00BF00BF02A9AA
:104C50000231854862DF044600BF2546002D07D09B
:104C600000BF7C4A7E49891D2846FFF76BFB00BFC9
:104C700000BF02A902317D4862DF044600BF25461D
:104C8000002D07D000BF734AC32189002846FFF7D3
:104C900059FB00BF00BF00200390049005900690D0
:104CA0001221734805F023FB7248039012200590EF
:104CB0006F4806907048049003A9704800F015FDF5
:104CC000044600BF2546002D07D000BF614A644955
:104CD00014312846FFF736FB00BF00BF01A90120B1
:104CE00003F0B2FB044600BF2546002D07D000BFED
:104CF000584A5B4918312846FFF724FB00BF00BF24
:104D00006846007900280FD000F0A3FD044600BFDC
:104D10002546002D07D000BF4E4A192149012846DB
:104D2000FFF710FB00BF00BF544800F06DFD0446C4
:104D300000BF2546002D07D000BF464AC921890083
:104D40002846FFF7FFFA00BF00BF07B030BD70B5BF
:104D500004460D46164632462946204600F02BFFF3
:104D600070BD38B500200090454800906946454820
:104D700000F0E1FE044600BF2546002D07D000BF2D
:104D8000344A37493C312846FFF7DCFA00BF00BF00
:104D900038BD10B5082000F04AF8082000F055F89A
:104DA00010BDFFF7F6FF03F005FF044600BF2546E0
:104DB000002D07D100BF274A29494F310020FFF7B6
:104DC000C1FA00BF00BF00231A4610212EA003F035
:104DD0002EFF044600BF2546002D07D100BF1D4A07
:104DE000D52189000020FFF7ADFA00BF00BFFFF713
:104DF000C9FBFFF7D2FBFFF73BFEFFF74FFEFFF7C4
:104E00007FFEFFF740FDFFF7E1FBFFF7FCFEFFF73A
:104E1000A8FFFFF71BFCFFF7DFFCFFF708FDFFF71C
:104E2000A9FEFFF759FC00BFFFF7DCFEFCE70121FC
:104E30000522120707231B02D2188300D1507047A6
:104E400001218140154A9160704701218140134A38
:104E5000D16070475047010050200020C0A60100DB
:104E600003030000D0A60100E0A60100F0A60100A7
:104E7000E021002021450100AD470100CC210020A8
:104E80004F4D0100B021002020202020424C452021
:104E9000414E435320202020000000000005005018
:104EA00010B5F7480068F7490968884236D0F448D9
:104EB00000682C214843F44940184068012810D16B
:104EC000EF4A12682C235A430B46D2181189EC4A38
:104ED00012682C235A43EC4B985A002295DF044663
:104EE0000FE0E74A12682C235A43E74BD2181146C9
:104EF0001C31E34A12682C235A43E34B985A97DF3C
:104F00000446002C09D1DE480068401CDC490860DA
:104F1000084600784007400F086000BF10BD30B55C
:104F20008DB004460D460720D84908600120019045
:104F3000039501A8216888470DB030BDF8B5054636
:104F4000012600BF012168468170D149018000BF60
:104F500002206946887028896A46314690DF0446F7
:104F6000002C04D021462846FFF7D9FF02E002209A
:104F7000C6490860F8BD70B504460E462089314622
:104F800092DF0546002D03D10320C049086003E0ED
:104F900029462046FFF7C3FF70BD38B504460025FB
:104FA000BC48008CFF2810D1BA48C08B401C81B28D
:104FB00068460180B748C08B401C81B2684641807A
:104FC0002089694693DF054613E0B248808DFF28AB
:104FD0000FD1B048408D401C81B268460180AD4879
:104FE000408D401C81B2684641802089694693DF2C
:104FF0000546002D03D10420A449086003E029469A
:105000002046FFF78CFF38BD10B58CB00446052054
:105010009E490860002000906846216888470CB0CF
:1050200010BD0621994A1160704770B504460D46BF
:10503000A88820810A202056401C00280ED00A2073
:1050400020562E225043944A126881182E229148ED
:1050500005F0EEF82046FFF7E4FF05E0FF208D495C
:1050600008702046FFF76AFF70BD70B504460D4614
:10507000884840888649884206D0FF2085490870C4
:105080002046FFF75BFF02E02046FFF7BDFF70BD43
:1050900070B506460C46E088002804D0E18830460A
:1050A000FFF73DFF1AE000BF217C7A480171E089DB
:1050B0007849488000BFA08900280BDD25460E35C1
:1050C000A9887448C180E9880181811D3046FFF7B5
:1050D00052FF03E0E1883046FFF721FF70BD00BFBB
:1050E0008A7882700A88028000BF0A790271CA88B1
:1050F000C2800A890281FF2242817047F8B50746C3
:105100000C46E088FF210B31884204D0E088FF2163
:105110000231884214D15F48C08B002807D05D4817
:10512000408A002803D05B48408D002804D1052127
:105130003846FFF7F4FE50E03846FFF72EFF4CE00C
:10514000E088002804D0E1883846FFF7E8FE44E014
:105150000025002628E00A203146414320460E3033
:105160000D1828884D49401800280ED04C49401889
:10517000002810D04949C91C4018002811D12946DF
:1051800044480A30FFF7ABFF0CE02946414816308F
:10519000FFF7A5FF06E029463E482230FFF79FFFB4
:1051A00000E000BF00BF761CA089B042D3D8002D1C
:1051B0000DD02889401C81B268460180354801899C
:1051C0006846418069463846FFF7D5FE04E031491C
:1051D000891D3846FFF7CFFE00BFF8BD438A0A8815
:1051E000521E934206D14A882E4B9A4219D10B88FF
:1051F000838216E0C38B0A88521E934206D14A88E6
:10520000284B9A420DD10B8803840AE0438D0A880B
:10521000521E934205D14A88224B9A4201D10B88F3
:105220008385704770B505460C46E088FF210B3139
:10523000884204D0E088FF210231884204D1052150
:105240002846FFF76CFE32E0E088002804D0E188B1
:105250002846FFF764FE2AE0A089002804DD2146E5
:105260000E310C48FFF7BAFF0A48008CFF2803D024
:105270000848808DFF2817D12846FFF78EFE16E0DC
:105280008820002084200020C424002094200020B6
:1052900031F400005426002098200020F3EDFFFF99
:1052A000244BFFFF022900002846FFF7ADFE70BD2A
:1052B000F8B506460D461746002475E0F748006825
:1052C000030005F0E5F909060D141B2229303749C2
:1052D0006F00285DF24908720120F049086061E022
:1052E000295DEF4841720220EC4908605AE0295DCF
:1052F000EB4881720320E949086053E0295DE848E2
:10530000C1720420E54908604CE0295DE44801735E
:105310000520E249086045E0295DE1484173062027
:10532000DE4908603EE0295DDD48C1810720DB4998
:10533000086037E0DA48C089295D09020843D84986
:10534000C8810820D5490860D5481030D549086083
:105350000020D549088025E0285DD24909680870F9
:10536000D0480068401CCF490860CF480088401CE6
:10537000CD490880CA48C0890988884211D10020D7
:10538000C84909680870C7480068401CC5490860DA
:105390000320C3490860C248316888470520BF49D7
:1053A000086000BF00BF641CBC4287DBF8BDFFB5CE
:1053B00081B017461D460026BC480068052802D06B
:1053C000082005B0F0BDBA480068B9490968491C11
:1053D000B74A11602C214843B6494418104600785A
:1053E0004007400F11460860B348418AE1832146D7
:1053F000083161620021218401212177002130469A
:10540000761C2246083211540422204609300299A3
:1054100004F00EFF361D15E029783046761C224632
:10542000083211546888002809DDA9783046761CB6
:105430001154A8780002C1B23046761C11542D1DBB
:10544000781EC7B2002FE7DC6684019800892080AF
:1054500002206060FFF724FD0020B2E7F3B58FB0B3
:105460000546109804460C34A088022801DA11B0D1
:10547000F0BD21889048C08B814209D100BF8E4881
:10548000017E03A881718C48C08A6946088210E0B9
:1054900021888948408D81420AD100BF8648223048
:1054A000817803A881718448408C6946088200E0B5
:1054B000DDE721888048C08B814238D1A1796846D8
:1054C0000175E17903A84172217A8172617AC17212
:1054D00062898281A189C1810220039003A8296881
:1054E00088476846007D00282BD10121684601715C
:1054F0002021C18003210172202101A8C18001ABBC
:10550000022206A92846FFF752FF064600BF37468B
:10551000002F07D000BF69A2AD2189003846FEF7F1
:1055200011FF00BF00BF00205C49086009E021882E
:105530006148408D814204D1A288A11D2846FFF711
:10554000B7FE00BF93E770B504460D46FFF7A8FC11
:1055500070BD10B5044601205449086056480078D3
:10556000FE2807D10A202056401C002802D0A07A2D
:10557000514908705048007801280ADA4E490978E4
:105580002E225143514A126888182E224A4904F0AB
:105590004FFE2E21484804F0A8FEFF20464908701F
:1055A000E0720020C0432081A07210BD0A68002A6A
:1055B00002D0012A06D102E00A79827203E00A7958
:1055C000827200E000BF00BF704770B506460D460E
:1055D0002C8836480068030005F05AF80805061CB8
:1055E0002936430D585757E0102C03D12946304631
:1055F000FFF71BFD50E0172C01D0142C04D12946D5
:105600003046FFF732FD04E0112C02D13046FFF79F
:10561000A0FF41E0302C04D129463046FFF738FD89
:1056200004E0112C02D13046FFF793FF34E0322C16
:1056300004D129463046FFF761FD04E0112C02D168
:105640003046FFF786FF27E0332C04D12946304649
:10565000FFF7E8FD04E0112C02D13046FFF779FF97
:105660001AE0382C04D129463046FFF7F7FE0BE04C
:10567000372C04D129463046FFF765FF04E0112C92
:1056800002D13046FFF765FF06E000BF112C02D1C2
:105690003046FFF75EFF00BF00BF70BD9C200020BA
:1056A00084260020A4200020A82000209420002090
:1056B00084200020C4240020542600202E2E5C626A
:1056C0006C655F616E63735F632E630098200020DA
:1056D000F8B506460F461446069D002C04D06248D5
:1056E0000068416820468847F8BD7CB504460D46F1
:1056F0002868002801D107207CBD286820606868E0
:105700006060FF20E0720020C043A0720020E072C1
:10571000A868E060E86820610020C04320812E2155
:10572000524804F0E2FD5248002101604160FF2030
:105730004E49087001204F49086001216846C18028
:10574000302181804C4800904C49684604F046F86E
:1057500006464B484B4908603046CDE7F7B505464D
:105760000E46029F43480068052801D00820FEBD70
:105770004548006844490968491C434A11602C2186
:1057800048433B494418104600784007400F1146F3
:105790000860E683022161842146083161620021AC
:1057A0002184012121772772FF2000023840011255
:1057B0006172258002206060FFF772FB0020D6E74F
:1057C00010B50446294A118C20890122FFF7C6FF33
:1057D00010BD10B50446254A118C20890022FFF720
:1057E000BDFF10BD10B50446204A918D20890122CD
:1057F000FFF7B4FF10BD10B504461C4A918D2089F7
:105800000022FFF7ABFF10BD70B506460023302223
:105810001A491B4804F0A4F90546002D0DD00024B8
:1058200006E0FF212E206043164A12681154641CC2
:10583000002CF6D0052D00D10025284670BD10B5EE
:10584000002330220E490D4804F0C0F804462046DB
:1058500010BD10B507480068002800D110BD3021E8
:10586000064804F0E2F9F9E7A020002054260020C1
:10587000C424002094200020D15601008C20002058
:105880002426002098200020842000208A888282FC
:1058900070470022D2438282704770B504460E469C
:1058A000B51D2988208A814213D1288B022810D166
:1058B00000BF00BFA97EEA7E120211430846C1075D
:1058C000C90F002902D00120A0750FE00020A075AB
:1058D0000CE02888A188884208D1A069002805D05A
:1058E0002A8B29461A312046A369984770BD30B5E6
:1058F0008FB004460D460020079000BF6846007F29
:1059000001090901491C68460177007FF02188439D
:1059100010306946087700BF00BF6846407F010924
:105920000901491C68464177407FF02188431030C7
:105930006946487700BF6846807F06218843811CFE
:10594000684681771C2108A804F0D1FC08A80078DB
:1059500010218843411808A80170002009900B907D
:105960000C9007A80D9000200E9021786846817158
:10597000032181800020009000BF68460078010963
:105980000901491C684601700078F02188431030F5
:105990006946087000BF00BF6846407801090901E8
:1059A000491C684641704078F021884310306946B0
:1059B000487000BF6846807806218843811C68468D
:1059C000817080780821884301466846817080781C
:1059D000102188430146684681708078410849005B
:1059E000491C68468170142102A804F080FC01A8BB
:1059F0000290684603900121018200214182142116
:105A00008182608823460C3302AA08A9A2DF0FB066
:105A100030BD30B58FB004460D461C2108A804F0F7
:105A200066FC08A8007808218843411808A801707E
:105A3000007804218843011D08A801700020099006
:105A40000B900C900D900E90217868468172022187
:105A500001810020019000BF684600790109090119
:105A6000491C684601710079F0218843103069466D
:105A7000087100BF00BF6846407901090901491C4F
:105A8000684641714079F021884310306946487179
:105A900000BF6846807906218843811C6846817171
:105AA00080790821884301466846817180791021F8
:105AB0008843014668468171807941084900491C44
:105AC00068468171142103A804F011FC02A8039018
:105AD00001A804900121684681820021C18214211D
:105AE00001836088231D03AA08A9A2DF0FB030BD7F
:105AF00070B505460C46002D01D0002C00D170BDBC
:105B00002088102804D0112807D050280FD109E090
:105B100021462846FFF7BAFE0AE021462846FFF74D
:105B2000B8FE05E021462846FFF7B7FE00E000BFBB
:105B300000BF00BFE3E770B586B004460E46334BA6
:105B40000FCB01AD0FC5002C01D0002E02D10E20CD
:105B500006B070BD0020C043A0823068A061002064
:105B6000A075214601A862DF0546002D01D0284618
:105B7000EEE721786846817501218182A21C05A982
:105B80000120A0DF0546002D01D02846E0E7314680
:105B90002046FFF7ACFE0546002D01D02846D7E78A
:105BA00031462046FFF735FF0546002D01D0284637
:105BB000CEE70020CCE737B584B004460D46002C74
:105BC00002D10E2007B030BDA08A1149884202D010
:105BD000A07D002801D10820F4E76846008B142836
:105BE00001DD0720EEE70020009001900290039075
:105BF000A18968460180039506A8029001216846A4
:105C00008170A08A6946A6DFDCE7000000A70100DA
:105C1000FFFF0000F7B584B004460F4606980678EB
:105C2000B01C1F2803DC2079801C1F2802DD0C20FB
:105C300007B0F0BD1F20801B801E85B20295B11CED
:105C4000781802A97DDF03900398002801D00398FB
:105C5000EEE72068022808D168460089A84204DCE3
:105C600009200190684605890BE008200190207901
:105C7000002804D02079A84201DC257901E068469B
:105C80000589681CC2B23046711CCEB23A54304607
:105C9000721CD6B20199395406980178A81C0818CC
:105CA000C1B2069801700020C2E7F8B505460C465F
:105CB0002078001D1F2801DD0C20F8BD684679DF23
:105CC0000646002E01D03046F7E703212278501C0B
:105CD0002070A95419212278501C2070A9542078D2
:105CE00041196846008800F08BFA2178401820702E
:105CF0000020E2E7F8B505460F4616461C466868E0
:105D0000002801D10720F8BD2078801C2988401880
:105D10001F2801DD0C20F6E72878401CC1B222784C
:105D2000501C2070B1542178481C207077542A8868
:105D300023789819696804F07BFA2078297840184C
:105D400020700020DFE730B503461078C01C1F2804
:105D500001DD0C2030BD02241578681C10704C55F4
:105D60000A241578681C10704C551578681C107042
:105D70004B550020EEE7FFB587B006461D46109C48
:105D80000020069020780590002747E0B900706851
:105D900041180A886846028149884181002203A986
:105DA00002A864DF04900498002802D004980BB085
:105DB000F0BD6846017B099881422ED106980028E3
:105DC00001D0002000E00220019020786946097B84
:105DD0004118019808181F2801DD0C20E7E70698F4
:105DE000002809D12078401C20702278511C089886
:105DF0002170A854012006902078421903A902A816
:105E000064DF04900498002801D00498CFE720783C
:105E10006946097B4018207000BF7F1C3088B8425B
:105E2000B4DC0698002806D021780598401C081A92
:105E3000C1B2059829540020B9E7FFB581B00746E3
:105E400015460A9E009602223846049B0299FFF7E7
:105E500092FF0446002C02D0204605B0F0BD00960B
:105E6000102229463846049BFFF785FF0446002C84
:105E700001D02046F1E70020EFE701460888062818
:105E800008DB08881922D201904205DD0888E14A22
:105E9000904201D0072070474888062808DB4888D0
:105EA0001922D201904205DD4888DA4A904201D099
:105EB0000720F0E70888D74A904208D048889042E7
:105EC00005D008884A88904201DD0720E3E70020DA
:105ED000E1E7F8B506460D4614462078801D1F28D8
:105EE00001D90C20F8BD3046FFF7C7FF0746002F49
:105EF00001D03846F6E705212278501C2070A954BD
:105F000012212278501C2070A9542278511930880F
:105F100000F076F9217840182070227851197088A5
:105F200000F06EF92178401820700020DAE7F8B50B
:105F300005460E4614462879801CC7B22078801C7E
:105F4000C0191F2801DD0C20F8BD781CC1B22278D1
:105F5000501C2070B154FF212278501C2070B15485
:105F600022789119288800F04BF921784018207088
:105F7000A88800280EDDA868002801D10720E3E7E3
:105F8000AA8823789819A96804F052F92078297909
:105F9000401820700020D7E7FEB507460E4614468D
:105FA000786B002801D10720FEBD0020019032E06F
:105FB000796B0C22019850430D182879801CC0B2CF
:105FC00000900098401CC1B22278501C2070B1543F
:105FD00016212278501C2070B154227891192888FB
:105FE00000F00EF9217840182070A88800280EDDF6
:105FF000A868002801D10720D6E7AA882378981935
:10600000A96804F015F920782979401820700198C2
:10601000401CC0B201903820C15D01988142C7DCAC
:106020000020C1E7F8B504460F46164600250020BB
:1060300030702068002809D0324639462046FFF7E4
:10604000E9FD0546002D01D02846F8BD60790028FD
:1060500008D031463846FFF728FE0546002D01D00E
:106060002846F2E7208900280BDD33463A46012115
:1060700020460830FFF73EFE0546002D01D0284699
:10608000E3E7206900280BD000202169085632463A
:106090003946FFF758FE0546002D01D02846D4E7C3
:1060A000A08A00280CDD3B4606220221204614303F
:1060B0000096FFF7C2FE0546002D01D02846C4E732
:1060C000A08B00280CDD3B460722032120461C3014
:1060D0000096FFF7B2FE0546002D01D02846B4E732
:1060E000A08C00280CDD3B461522142120462430CC
:1060F0000096FFF7A2FE0546002D01D02846A4E732
:10610000E06A002809D032463946E06AFFF7E1FE2E
:106110000546002D01D0284697E7206B002809D0BE
:1061200032463946206BFFF702FF0546002D01D0AD
:1061300028468AE73820005D002809DD32463946C6
:106140002046FFF729FF0546002D01D028467CE7B1
:1061500028467AE701460889002808D0C868002840
:1061600005D0C868007804221040002801D107201B
:1061700070470020FCE701460889002801DD072060
:1061800070470020FCE7F3B593B00D460021129153
:1061900011911398002814D01398FFF7DBFF0446E1
:1061A000002C02D0204615B0F0BD12AA09A9139800
:1061B000FFF738FF0446002C01D02046F3E709AE74
:1061C00000E00026002D13D02846FFF7D4FF044638
:1061D000002C01D02046E6E711AA01A92846FFF7C6
:1061E00021FF0446002C01D02046DCE701AF00E08F
:1061F000002710A803793A46017A304672DFD2E7C9
:1062000002460A70FF20000210400012487002206F
:1062100070470000FFFF000001464888B74A128817
:10622000904206DB4888B54A5288904201DC012042
:1062300070470020FCE738B50546B1480088B149F1
:1062400088423BD0B0480078401CAF490870AF4846
:10625000007B097888420FDBA849A948008875DFD0
:106260000446002C07D0A9488069002803D0A7481D
:1062700081692046884721E00020A3490870A3488F
:10628000007C00280FD03B219D48008876DF044623
:10629000002C07D09D488069002803D09B48816965
:1062A0002046884700BF99484069002806D0002052
:1062B0000090964841696846884700BF38BD70B570
:1062C00005461C2229469148FDF77CFF0020904995
:1062D0000870286800280BD008228848296803F035
:1062E000A7FF86487ADF0446002C08D0204670BD00
:1062F00082487BDF0446002C01D02046F7E70020CF
:10630000C0437F49088000207F490870814A0021EE
:10631000814800F06AFDEAE710B57F48006800F0A8
:10632000DCFD10BD38B57D48FFF776FF002829D188
:106330007748007800280AD074484069002820D0A7
:1063400000200090714841696846884719E06E480E
:106350000078002802D16D48456801E06B488568E7
:10636000002229466C48006800F086FD0446002C97
:1063700007D066488069002803D0644881692046B8
:1063800088470AE061484069002806D00120009053
:106390005E4841696846884700BF00205C49087034
:1063A00038BD10B50446A08855490880082221460A
:1063B0000E315A4803F03CFF0020534908705348FF
:1063C000C089002801D1FFF7ADFF10BD70B50546AB
:1063D0000020C0434A49088000204B4908704E48BD
:1063E000006800F07AFD0446002C07D04748806919
:1063F000002803D0454881692046884770BD70B5A4
:106400000546AC1D20884149C989884220D1208B8E
:1064100002281DD100BF00BFA17EE27E12021143FF
:106420000846C107C90F002902D0FFF77BFF0FE024
:106430003948006800F051FD0646002E07D0334869
:106440008069002803D0314881693046884700BF01
:1064500070BD10B504460822A11D304803F0E8FEC7
:10646000FFF760FF10BD10B504462088102806D045
:10647000112808D012280ED0502810D107E020464D
:10648000FFF78FFF0CE02046FFF7A0FF08E0204653
:10649000FFF7B5FF04E02046FFF7DBFF00E000BF99
:1064A00000BF10BD38B5044608222146134803F04A
:1064B000BFFE12487ADF0546002D1CD11748FFF7B2
:1064C000ABFE00280BD10120114908700B490C4884
:1064D000008875DF054601200B4908700BE00B486A
:1064E0004069002806D001200090084841696846AC
:1064F000884700BF0025284638BD0000AC2000209A
:10650000B6200020FFFF0000B4200020B4260020A9
:10651000C420002037620100C0200020B8200020E5
:1065200010B5002819DAFA4A03071B0F083B9B082D
:106530009B00D2588307DC0EFF23A3409A438B07AE
:106540001B0E8407E40EA3401A43F14B0407240FEB
:10655000083CA408A4001A5118E0EE4A03231B02C9
:10656000D21883089B00D2588307DC0EFF23A34078
:106570009A438B071B0E8407E40EA3401A43E54B96
:10658000032424021B198408A4001A5110BD10B55D
:106590000446E148846003211120FFF7C1FF10BDCC
:1065A00010B501200004DD494860DC4940394860ED
:1065B000112000F0DDFC112000F0CCFC0120D849B6
:1065C00008602F20FDF7CEFD10BD10B51120012170
:1065D0008140D04A8032116000BF01200004CF49C1
:1065E0008860CE49403988600120CD4948602F201D
:1065F000FDF7B8FD10BDF0B5024628205043C94B49
:106600001B68C118C8480068401C002802D1C64851
:10661000026059E0C4488B68006828246043C14C7C
:10662000246800198068834217D8BF48006828236F
:106630005843BC4B1B68C01880688B68C31ABA48A3
:10664000006828246043B74C246800198360B6486A
:1066500000684862B448026036E08B68B24D2C682E
:1066600028680DE028254543AE4E3668AD19AD6863
:106670005B1B044628254543AA4E3668AD19686A57
:10668000451C002D07D028254543A64E3668AD1978
:10669000AD689D42E6D3451C002D0CD0282545430E
:1066A000A04E3668AD19AD68EE1A282545439D4FBA
:1066B0003F68ED19AE608B60486228256543994EAE
:1066C0003668AD196A6200BFF0BD70B50246964CDF
:1066D0002168084609E0904200D109E001462824DB
:1066E0004443904D2D686419606A441C002CF2D11B
:1066F00000BF441C002C00D170BD814209D18A4CDE
:10670000246828256C43874D2D686419646A864D7A
:106710002C6028244443834D2D686419A3682824E1
:106720004443804D2D686419656A28244C437D4E8E
:106730003668A419656228244C437A4D2D68641983
:10674000606A441C002C0CD028244443754D2D68ED
:106750006419A468E51828244443724E3668A419C5
:10676000A56000BFC8E710B5112000F0FAFB10BD0E
:1067700010B5142000F0F5FB10BD70B504466B4851
:106780000068002813D0694A216AE06912689047BE
:10679000054600BF2E46002E07D000BF64A2FF2191
:1067A00055313046FDF7CEFD00BF00BF02E0E16984
:1067B000206A884770BDF8B55B480068401C002817
:1067C0003AD0002700F006FC0446654801682046E0
:1067D00000F003FC06465448056811E02820684391
:1067E000504909684418A068B04200D90BE0A0687D
:1067F000361AA068C719656A2046FFF7BEFF00BFBA
:10680000681C0028EAD100BF56480078564909782C
:10681000884209D154480078401CC0B252490870DF
:10682000022801D1002008704F48007880004F49AD
:106830000F50FFF79DFF00BFF8BD014649480078A3
:10684000494A127890421DD046480078401C454A7B
:10685000107010460078022801D1002010704148C5
:1068600000788000414A105808603D4A0868126864
:1068700080183B4A1060104600680002000A106051
:10688000012070470020086000BFFAE7FEB52648E7
:106890000068019036480078009074E00098C000CD
:1068A000344909684418257869E01820684361680C
:1068B0000F18681CC5B2A078A84200D1002538681E
:1068C000022802D0032857D10EE0282178684843D7
:1068D000144909684618307E002804D07868FFF70C
:1068E000F4FE0020307648E00CE00F4909682822C9
:1068F00051430C4A12688818002101760A4A416AFD
:10690000116000BF08480068401C0028EDD134E049
:106910001CED00E000E100E00015014040130140E3
:1069200000100140CC200020D8200020EC200020C6
:106930002E2E5C2E2E5C2E2E5C2E2E5C2E2E5C2E91
:106940002E5C536F757263655C6170705F636F6D11
:106950006D6F6E5C6170705F74696D65722E63003F
:10696000DC200020E8200020E9200020E02000209A
:10697000D0200020D420002000BF00BF00BF6078DE
:10698000A84292D100BF0098411EC9B200910028D0
:1069900084D1FE4801680198814201D00120FEBDEA
:1069A0000020FCE7F0B50346002426E0F74E3668E9
:1069B00028277E43F64F3F68F01986689E4203D928
:1069C0008668F61A86601DE086689B1B8668341907
:1069D000002686600676ED4E3568EC4F466A3E60CE
:1069E0004669002E08D00E193602360AC66046697E
:1069F000066116684662156000BFE4480068401CE6
:106A00000028D3D100BFF0BDFEB50746DF480068BF
:106A10000290E048007801906BE00198C000DE49E8
:106A2000096845185DE0781C002807D03E462820FC
:106A30007043D74909684418676A23E02978182306
:106A400059436A6850182978491C29702978AA780E
:106A5000914201D100212970466828217143CC4A16
:106A600012688C180168012902D1217E002900D00A
:106A700037E08168E160C168216101696161416954
:106A8000216200BFC549E0680968401A0002000A97
:106A9000C349884208D2C149E068096800F09DFAFC
:106AA00021694018A06011E0BC48E168006800F06E
:106AB00094FA009021690098814204D921690098D4
:106AC000081AA06001E00020A06000BF0020E06084
:106AD000206101202076801E60623046FFF78BFD2A
:106AE00000BF781C00289ED12878697888429AD106
:106AF00000BF0198411EC9B2019100288DD1A34861
:106B000001680298814201D00120FEBD0020FCE70F
:106B1000FEB505469D480068401C002835D09B48BE
:106B20000068282148439A4909684018866800F09F
:106B300051FA0290994804682146029800F04DFAF3
:106B4000C01C0190681C002801D1FFF729FD0198A5
:106B5000B04201D2304600E0019804192402240A10
:106B600020469049086000BF00F034FA0090029976
:106B7000009800F032FAC71C2046029900F02DFA66
:106B8000874201D9FFF7EFFD01E0FFF71EFDFEBDD3
:106B9000FEB50020C0430190804804687B48076828
:106BA0006846FFF74AFE0546FFF770FE0646002DD1
:106BB00005D001AA21460098FFF7F4FE01260198AE
:106BC000FFF722FF002800D00126002E02D0384611
:106BD000FFF79EFFFEBD4170704770B502460B4641
:106BE0005078411C9078884200D10021107888426A
:106BF00001D1002070BD1960507818267043556887
:106C00002C182046F6E7FFB581B005460E4617461C
:106C1000E900614A126888186946FFF7DEFF0446FA
:106C2000002C02D1042005B0F0BD01202060666078
:106C300000F0D0F9A060E760049820610A986061D4
:106C4000E900554A126888180099FFF7C4FFFFF75A
:106C50008FFD0020E7E7F8B504460E46E1004E4AF6
:106C6000126888186946FFF7B8FF0546002D01D164
:106C70000420F8BD022028606E60E100464A1268D8
:106C800088180099FFF7A7FFFFF772FD0020F0E7D3
:106C900038B50446E100404A126888186946FFF793
:106CA0009CFF0546002D01D1042038BD032028603B
:106CB000001F6860E100384A126888180099FFF7E1
:106CC0008AFFFFF755FD0020EFE710B50020364999
:106CD00008600021344841608160C1600020324971
:106CE000403908604860FFF766FD10BD10B5FFF73A
:106CF0004FFF10BDFFB581B00E4617461C4620461B
:106D00008107890F002901D1012100E0002100291C
:106D100002D1072005B0F0BD002C01D10720F9E712
:106D2000FFF753FC21490A9808602148067018486B
:106D3000046000250CE0002128206843144A1268F2
:106D4000115028206843124A1268801801766D1C81
:106D5000B542F0DB28207043041903200D49087068
:106D60000D480460183400250CE0E9000A4A126856
:106D700088180021017041708770446018217943A0
:106D80000C196D1C032DF0DB002013E0D82000202F
:106D9000CC200020D0200020D4200020DC200020A7
:106DA000FFFF7F004015014040110140EC20002012
:106DB000C8200020C0438B49086000208A49087021
:106DC0008A490870142000F0D3F803211420FFF73B
:106DD000A7FB142000F0BEF80198FFF7D8FB00F0E5
:106DE000F9F883490860002094E770B503460C4623
:106DF00080480068002801D1082070BD002A01D118
:106E00000720FAE7002B01D10720F6E700211CE05C
:106E100028204843774D2D682858002814D1012593
:106E200028204843734E3668355028204843714D1A
:106E30002D6840194460282048436E4D2D68401944
:106E4000C26119600020D8E7491C6B480078814274
:106E5000DEDB0420D1E710B500F092F8012802D063
:106E6000032804D101E0002403E0012401E002240E
:106E700000BF00BF204610BDFEB504460D461646B5
:106E80005C480068002801D10820FEBD5A480078FF
:106E9000844201D2052D01D20720F6E72820604365
:106EA000544909680858012801D00820EDE7282036
:106EB00060435049096840184068012801D12846BC
:106EC00000E000200746FFF7C6FF3B462A46214662
:106ED00000960190FFF797FED7E770B50446454846
:106EE0000068002801D1082070BD43480078844222
:106EF00001D30720F8E7282060433E490968085875
:106F0000012801D00820EFE7FFF7A5FF054621463D
:106F1000FFF7A1FEE8E710B536480068002801D168
:106F2000082010BDFFF797FF0446FFF7B1FEF8E712
:106F300010B5044600F04EF82060002010BD70B57A
:106F400005460E4614463146284600F046F82060B5
:106F5000002070BDC206D20E01219140274A116067
:106F60007047C206D20E01219140254A1160704738
:106F7000C206D20E01219140214A80321160704731
:106F800010B520484068C105C90D002920D00A4627
:106F9000103A104600280DDA1A4B1C330407240F50
:106FA000083CA408A4001B598407E40EE3401B0618
:106FB0009B0F0BE0114B032424021B198408A4002F
:106FC0001B598407E40EE3401B069B0FD8B210BD8B
:106FD0000420FCE70C48406870470246501A000243
:106FE000000A7047D8200020E8200020E920002077
:106FF000DC200020CC200020C820002000E100E0A0
:1070000000E200E000ED00E00015014070B503462D
:107010000C46002A01D1894D00E015882846002140
:1070200011E0051206023543A8B25D5C6840050612
:107030002D0F684005034540A8B205062D0D6D00D3
:1070400068404D1CA9B2A142EBDB70BD02217C4A15
:10705000516000BF7B4909680029FBD078498860EE
:1070600000BF784909680029FBD00021744A5160AB
:1070700000BF744909680029FBD070470122704B9A
:107080005A6000BF6F4A1268002AFBD0016000BF3F
:107090006C4A1268002AFBD00022694B5A6000BF7C
:1070A000684A1268002AFBD0704770B504460D4646
:1070B00000E03DDF644800780028FAD101206049F3
:1070C000486000BF5F4800680028FBD0256000BF13
:1070D0005C4800680028FBD000205949486000BF88
:1070E000584800680028FBD070BD70B504460D46B6
:1070F00029462046FFF7D9FF002070BDF8B50546A8
:107100000E461746002407E0A00031582846FFF736
:10711000CCFF2D1D601C84B2BC42F5DB0020F8BD05
:1071200070B5044601200007006980B2604305463F
:107130002846FFF78BFF002070BDF7B584B01546D9
:1071400001200007006980B20499484307463C4685
:10715000A90000220598FFF759FF039020680190CD
:10716000019880B2029003990298884202D10020CF
:1071700007B0F0BD3846FFF769FF241D241D002627
:1071800007E0B200059881582046FFF777FF241DDD
:10719000761CAE42F5DB2946381DFFF786FF2B49EA
:1071A00003980843019038460199FFF77EFF0020BD
:1071B000DEE7F7B586B007461446012000070069F0
:1071C00080B278430490049D286803900398000CD3
:1071D000000401901D490198884204D000202070CD
:1071E000052009B0F0BD2D1D287820702D1D2078B8
:1071F000800005902946059A0798FCF7E3FF207860
:10720000810000220798FFF701FF06460F48304330
:10721000029003990298884201D00520E1E70020FE
:10722000DFE7024601200007006980B25043086092
:10723000002070470449087070470000FFFF0000FD
:1072400000E5014000E40140F02000200000DE45A0
:107250000246100C0004FA4B984202D10A8000202A
:107260007047501C002801D10520F9E70B20F7E7F3
:107270007CB50546F34800780A2801DB04207CBD74
:10728000F0480078002806D100221146104602F08E
:1072900047FDED4908806A46EA480178EB4802F06C
:1072A00051FB0446002C01D02046E8E704234C2281
:1072B0002946684602F08AFB0446002C01D020468D
:1072C000DDE7E14A4C21284602F02AFDDE4908802C
:1072D00008460088DA490843DA4909788900DC4A17
:1072E0005050D84800788000811800230422684656
:1072F00002F06CFB0446002C01D02046BFE7D148C9
:107300000078401CCF4908700020B8E77CB50546DE
:10731000D04800780A2801DB04207CBDCD480078E5
:10732000002806D100221146104602F0F9FCCA4995
:1073300008806A46C7480178C84802F003FB044643
:10734000002C01D02046E8E7042324222946684681
:1073500002F03CFB0446002C01D02046DDE7BE4A8B
:107360002421284602F0DCFCBB490880084600883E
:10737000B3490843B74909788900B94A5050B5481C
:1073800000788000811800230422684602F01EFB6A
:107390000446002C01D02046BFE7AE480078401CD0
:1073A000AC4908700020B8E77FB50546A5480078CD
:1073B000002806D100221146104602F0B1FCA24975
:1073C000088002AA9F480178A04802F0BBFA044650
:1073D000002C02D0204604B070BD0023042202A974
:1073E00001A802F0BDFB0446002C01D02046F2E7C4
:1073F00069460198FFF72CFF0446002C01D0204677
:10740000E9E704234C2202A9284602F0A9FB04461E
:10741000002C01D02046DEE78B4A4C21284602F0A2
:107420007FFC8949088008460088694609888842A7
:1074300006D184480078401C824908700020CAE7C1
:107440000B20C8E77FB5054682480078002806D1A2
:1074500000221146104602F063FC7F49088002AA10
:107460007C4801787D4802F06DFA0446002C02D079
:10747000204604B070BD0023042202A901A802F036
:107480006FFB0446002C01D02046F2E769460198C4
:10749000FFF7DEFE0446002C01D02046E9E7042376
:1074A000242202A9284602F05BFB0446002C01D0EE
:1074B0002046DEE7684A2421284602F031FC66496E
:1074C00008800846008869460988884206D16148D4
:1074D0000078401C5F4908700020CAE70B20C8E70D
:1074E00010B519214901594802F09FFB0446002CB0
:1074F00005D1FF219131594802F097FB04462046FF
:1075000010BD38B500221146104602F009FC00906B
:10751000002409E070216143524A88186A464C21D0
:1075200002F0FEFB0090641C4F4800788442F1DBBF
:107530006846008844490988884201D0012038BD46
:107540000020FCE738B500221146104602F0E8FBA7
:10755000009000240BE070216143424A89180846DC
:107560004C306A46242102F0DBFB0090641C3E484C
:1075700000788442EFDB68460088374909888842F2
:1075800001D0012038BD0020FCE770B50546374822
:10759000C06E002808D03548C06E1A2801D90320D3
:1075A00070BD324C503400E0002430484C30008C28
:1075B00082B221462E480088A9DFF1E710B50021EC
:1075C00000202C4A10702C4A107033E070224A437D
:1075D000244BD018427A5207D20F002A12D00278D8
:1075E00052B2254B1B78DB00244CE25402461E327B
:1075F000214B1B78DB001B195A601F4A1278521C62
:107600001D4B1A704222125C022A12D0027852B22A
:10761000184B1B78DB001A4CE25402464232154BE1
:107620001B78DB001B195A60124A1278521C114B4E
:107630001A70491C0C4800788142C7DB10BD00005D
:1076400000002453242100200E21002014210020BA
:107650002C21002025210020102100201C210020A9
:10766000302100204C270020F8200020DC260020BC
:10767000F62000200C2100200D21002004210020F4
:10768000FC2000207CB50546FE480078012801DB7F
:1076900004207CBD32222946FB4802F0C9FDE9885E
:1076A000F948001FC1870021C166F6480078F649F5
:1076B000091F0860F3490978F24A1278521CF14B0D
:1076C0001A7070225143F14A88187022EE49091F3E
:1076D000FCF778FDFFF772FF0120ED4908700022EA
:1076E0001146EC480088A9DF0446002C01D0204652
:1076F000CFE7E548001FFFF7BBFD0446042C15D17A
:10770000E5484068002811D004200090DE48001FA2
:10771000007841B268460171DB48001FC18F68469E
:10772000C180DD4841686846884703E0002C01D0ED
:107730002046AEE7D8484068002811D000200090CD
:10774000D148001F007841B268460171CE48001F41
:10775000C18F6846C180D04841686846884700BFED
:10776000002096E770B5C848001F0468002C23DB92
:10777000C448007884421FDAC5480078002808D041
:1077800070216143C14A88184C22BF49091FFCF788
:1077900019FDC248007800280AD070216143BB4A15
:1077A000891808464C302422B7494831FCF70AFDB5
:1077B000FFF704FF002500E00325284670BD70B5E3
:1077C0000546002412E070206043B0494018C08F85
:1077D000A8420AD1702060430A4681187022AA4844
:1077E000001FFCF7EFFC002070BD641CA54800786A
:1077F0008442E8DB0520F7E770B594B00020A1498A
:1078000008702FE001A8FFF7CFFD0546052D00D138
:107810002CE0002D02D0284614B070BD019E99487E
:107820000078864201DD0B20F6E770217143974A0C
:1078300088184C2201A9FCF7C5FC924800788642C2
:107840000FD1002170207043904A8018C166491EF4
:10785000702070438018C1648A480078401C8949B0
:10786000087000BF874800780128CBDB00BF0024E8
:107870001DE00BA8FFF7E6FD0546052D00D11AE037
:10788000002D01D02846C7E77E4909780B98884229
:1078900001DD0B20C0E770220B9951437B4A891808
:1078A00008464C3024220BA9FCF78CFC641C75485C
:1078B00000788442DDDB00BF7248047810E00021CC
:1078C000C94370206043714A115000217020604309
:1078D0008018C166491E702060438018C164641C12
:1078E000012CECDBFFF76AFE002095E77CB504462F
:1078F000A088684908800020C0436349091F0860C8
:107900000722A11D60483E3002F092FC00215E4833
:10791000001FC166607BC007C00F00281AD0607BC3
:107920004508012D04DAE8005D490856012804DB0A
:1079300059488168032088470BE0E800584A1056F0
:1079400070225043514A811870224F48001FFCF7A3
:1079500039FC21E0002519E0E8005249401846684A
:10796000062249493F31701C02F012FC00280CD15C
:10797000E8004C4A105670225043444A8118702245
:107980004148001FFCF71EFC04E06D1C46480078CF
:107990008542E1DB00BF00BF3B48001F0068401C80
:1079A00000281AD000203A4908703C4908703A482B
:1079B0004068002811D0012000903348001F007853
:1079C00041B2684601713048001FC18F6846C180CE
:1079D000314841686846884700BF7CBD70B50546A0
:1079E0002948001F0068401C00280CD02F48007850
:1079F000C007C00F002806D02C480078022108409C
:107A00004008002806D00022114622480088A9DF3D
:107A1000044609E01C48001FFFF7B7FD0446002C90
:107A200002D101201D490870002C03D01A4881683A
:107A30002046884770BD7CB5044632222146124854
:107A400002F0F6FBE1881048001FC1870146096873
:107A5000702251430D4A8818702102F048FC0A49EF
:107A6000091F096870225143084A88187022064984
:107A7000091FFCF7A7FB0448001FFFF7F9FB0546A9
:107A8000042D15E0F8200020E02600204C270020DF
:107A900027210020F6200020D026002028210020C9
:107AA00004210020FC2000200C21002026210020A1
:107AB00013D1F948406800280FD004200090F748FF
:107AC000007841B268460171F448C18F6846C180B0
:107AD000F14841686846884705E0002D03D0EE482C
:107AE000816828468847EC48406800280FD003206A
:107AF0000090EA48007841B268460171E748C18FBA
:107B00006846C180E44841686846884700BF7CBD3C
:107B100070B504462078002800D070BDE048007899
:107B2000C007C00F002800D1F7E7DC480068401C00
:107B3000002812D1E088FFF742FE0546002D01D152
:107B40000F2503E02046FFF79DFD0546002D03D0DD
:107B5000D14881682846884705E00120D14908704E
:107B60002046FFF768FF00BFD7E770B50546E889F4
:107B7000FFF725FE0446002C10D10120C9490870EA
:107B80000022C6490A31C848008881DF0446002C1B
:107B90001ED0C14881682046884719E0052C17D1BE
:107BA0000C22A91DBD48363002F042FB00221146CE
:107BB000BD48008881DF0446002C03D0B6488168A8
:107BC0002046884700221146B7480088A9DF0446AE
:107BD000002C03D0B04881682046884770BDFEB5B0
:107BE000044620780607360F20780709012E01D1B8
:107BF000012F03DC022E2CD1002F2AD000BFA84871
:107C0000007801210843A649087000BFA348FFF788
:107C1000BCFC0546002D04D09F4881682846884753
:107C200002E00120A14908709B48406800280FD05D
:107C3000022000909948007841B268460171974847
:107C4000C18F6846C180944841686846884700BF34
:107C500000BFFEBD10B50446A078C007C00F0028C5
:107C600013D000BF8E480078022108438C49087069
:107C700000BF8A480068401C002806D000218748C1
:107C8000C1661A21503002F032FB10BD10B5044617
:107C900087480078002803D17F48816808208847FA
:107CA0002088142820D006DC10280BD011280DD0F5
:107CB000132825D11CE0172812D018281CD05228D0
:107CC0001ED109E02046FFF711FE1AE000BF002098
:107CD0007349087000BF14E02046FFF77FFE10E0F4
:107CE000A01DFFF715FF0CE02046FFF73EFF08E060
:107CF000A01DFFF7AFFF04E0A01DFFF770FF00E03D
:107D000000BF00BF10BD38B500BF6948007800282B
:107D100001D1082038BD00BF60480068401C002821
:107D20001CD01A2000906A465C4950315E48008899
:107D3000AADF0446002C01D02046EBE75748006834
:107D40005649C864684601885448C166FFF70AFD71
:107D50000446002C01D02046DCE700BFFFF7D1FB32
:107D600000281ED019214901524801F05EFF044647
:107D7000002C01D02046CDE700204F490870002597
:107D80000BE0702169434D4A8818FFF771FA0446E9
:107D9000002C01D02046BDE76D1C49480078854283
:107DA000EFDBFFF7CFFB002820D0FF2191314548C2
:107DB00001F03BFF0446002C01D02046AAE700203A
:107DC0004149087000250DE0702169433B4A89183C
:107DD00008464C30FFF79AFA0446002C01D02046A2
:107DE00098E76D1C364800788542EDDB0020C043E3
:107DF0002D49088029490860C86400212748C166C8
:107E00000020284908702949087000BF82E738B56A
:107E10002248C06E002826D11A2000906A461F49C9
:107E2000503121480088AADF0446002C01D02046AA
:107E300038BD1A4800681949C8646846018817485F
:107E4000C16601460968702251431C4A89180846D8
:107E50004C30242211494C31FCF7B4F90F484C3016
:107E6000FFF754FAE4E70820E2E710B500BF104836
:107E70000078002801D1082010BD00BF0020104963
:107E800008700D49087010490870104908701049B1
:107E90000870FFF725FBEFE7D0260020DC26002046
:107EA0002621002027210020F62000202821002064
:107EB000F420002014210020242100204C27002041
:107EC000F82000201C210020252100200D21002069
:107ED0000C21002070B504460D46601C00280DD012
:107EE000CF480078844209DA002D07D07020604323
:107EF000CC49401840308078022801D1072070BD5D
:107F000070206043C74A8018014642310722284644
:107F100002F08EF90020F2E710B50246002107E0DA
:107F2000C800C14BC01840688B00C04CE050491CD1
:107F3000BF4800788142F3DB002107E0C800BD4B59
:107F4000C01840688B00BC4CE050491CBB4800780E
:107F50008142F3DBB94800781071B84800780028F6
:107F600001D0B54800E000201060B14800781073DF
:107F7000AF480078002801D0AC4800E000209060B5
:107F8000002010BDF8B506460F461446069D002C8D
:107F900003D0AB48816820468847F8BD7CB50546CC
:107FA000A868002801D107207CBD50216846818047
:107FB0000A21C180A3480090A349684601F00EFC45
:107FC0000446002C01D02046EEE728206946888030
:107FD0009E49684601F002FC0446002C01D0204670
:107FE000E2E7974829460EC90EC07021984802F072
:107FF0007EF90020C0439649086096490880002019
:1080000087490870944908709449087000BF9449E2
:10801000087000BF8A48807800281FD0FFF760FAF8
:108020000446002C01D02046BEE700207C490870A1
:10803000087810E00022D24370214143794B5A5016
:10804000002270214143C918CA66521E7021414363
:10805000C918CA64401C0128ECDB06E0FFF7CCFB22
:108060000446002C01D020469EE701207D4908707F
:10807000002099E710B5024600BF7A480078002832
:1080800001D1082010BD00BF002901D10E20F9E761
:108090000888634B1B78984201DA0C20F2E76048AD
:1080A00000780880002A01D10020EBE7002007E0DB
:1080B000702343435B4C1B19DB8F44001353401C5C
:1080C000574B1B789842F3DB0020DBE7F8B50746F7
:1080D00000BF64480078002801D10820F8BD00BF27
:1080E0000026F64300240AE0702060434D49401802
:1080F000C08FB84201D166B205E0601CC4B24848E6
:1081000000788442F0DB00BF701C002801D10520FC
:10811000E4E7F4B228E0621C70235A43414BD118C3
:1081200070226243D0187022FCF74CF87020604334
:108130003C490858401E702161433A4A5050702013
:10814000604311464018C06C0021C943884209D0E1
:108150007020604311464018C06C401E702161437E
:108160008918C864601CC4B22D480078401EA04223
:10817000D1DC2B490978491E70225143294A8818BD
:10818000702102F0B4F826480078401E2449087097
:10819000FFF7A6F90546002D01D028469EE70020EE
:1081A0002D4908702D49087000240CE070216143AE
:1081B0001C4A8818FFF75CF80546002D01D02846B8
:1081C0008CE7601CC4B2164800788442EEDB0024C1
:1081D0000EE070216143134A891808464C30FFF7BE
:1081E00095F80546002D01D0284677E7601CC4B2FB
:1081F0000B4800788442ECDBFFF7E0F900206DE7E4
:10820000014600BF17480078002801D108207047B8
:1082100000BF13480078C007C00F08700020F6E7C1
:10822000F82000204C2700200421002038210020C5
:108230000D210020FC200020342100200C210020F2
:10824000D0260020857F0100142100201C21002061
:10825000DC260020F62000202421002025210020FB
:1082600026210020F4200020F8B504460D4692484F
:108270000068002813D0EAB221788F4BA0681B68F1
:108280009847064600BF3746002F06D000BF8BA296
:1082900028213846FCF756F800BF00BF0CE0012D3E
:1082A00004D120780121A268904705E0002D03D178
:1082B00020780021A2689047F8BDF8B507466946C6
:1082C0008B48007800F02BFB0646002E00D0F8BD4E
:1082D000002535E00C206843864909684418864823
:1082E0000068227801219140084000280FD0A06842
:1082F00000280CD06078012804D100212046FFF727
:10830000B3FF1BE001212046FFF7AEFF16E07A48DD
:108310004068227801219140084000280ED0A068D2
:1083200000280BD06078012804D101212046FFF7F6
:108330009BFF03E000212046FFF796FF681CC5B2B3
:108340006E4800788542C5DB00BFC0E770B50446C3
:108350000D466B480068FEF7C0FD0646002E00D0B3
:1083600070BD654844600560204628430246654864
:10837000016863480068FEF77FFD064600BFEFE72F
:10838000FFB583B006460C461746052F02D20720DC
:1083900007B0F0BD57480660584804705948076058
:1083A000454906980860002516E00C2161438819AC
:1083B0000278009241680191019989000522120713
:1083C00007231B02D318009A9200995000BF02782D
:1083D000012191400D4300BF2046611ECCB2002810
:1083E000E3D1494B2A462946414800F0C1F90290A1
:1083F0000298002801D00298CAE7444A0021404868
:10840000FEF7F3FCC4E710B53A480068002801D134
:10841000082010BD3648007800F0EFF9F9E710B5F4
:1084200034480068002801D1082010BD3048007889
:1084300000F054FA0446002C01D02046F5E73048FD
:108440000068FEF74AFDF0E7F8B505460C460C203B
:10845000684328490968471826480068002801D160
:108460000820F8BD69462248007800F058FA064610
:10847000002E01D03046F4E7787800280BD1009820
:10848000E840C007C00F002802D00020207010E094
:10849000012020700DE0787801280AD10098E8408A
:1084A000C007C00F002802D00120207001E000208A
:1084B00020700020D5E70000482100202E2E5C2EE1
:1084C0002E5C2E2E5C2E2E5C2E2E5C2E2E5C536F80
:1084D000757263655C6170705F636F6D6D6F6E5C0C
:1084E0006170705F627574746F6E2E6300000000BF
:1084F0004C2100203C21002054210020402100205C
:1085000050210020442100204D830100BB82010046
:1085100010B51848007801214840164908701648DF
:108520000068002804D00846007813490968884785
:1085300010BDF8B505460F4616460F4806601520D3
:1085400027DF0446002C01D02046F8BD294615201F
:1085500028DF0446002C01D02046F6E7152023DF53
:108560000446002C01D02046EFE73946032049DFBE
:10857000EBE700005C21002060210020F0B50246FE
:108580000C46002037E001238340194623460B4068
:10859000002B2FD0D5680D40002D05D101235B04A1
:1085A000D5680D43D56004E003231B04D5688D43D3
:1085B000D56005252D0707263602AD198600AD5971
:1085C00003263604B5430526360707273F02F6196A
:1085D0008700F55105252D0707263602AD198600BF
:1085E000AD591D430526360707273F02F6198700B8
:1085F000F55100BF401C2028C5D3F0BDF0B585B0B3
:10860000EF4805690020EF49C86300263FE01420C9
:108610007043ED49096844180120B040EB490968EE
:108620000840002831D0E068C04368402168084015
:10863000074639462046FFF7A1FFE1480069684038
:108640000390039800280ED003980543E068C043C8
:10865000684021680840009020460099FFF78EFF8F
:108660000098074300BFA068A843384001906068A5
:10867000284038400290019902980843002803D00E
:10868000226901990298904700BF701CC6B2D04879
:1086900000788642BBDB05B0F0BD10B50146002076
:1086A00029E014224A43C84B1B689A58012383408F
:1086B0001A40002A1ED00522120707231B02D218D7
:1086C0008300D25803231B049A4305231B07072466
:1086D00024021B1984001A510522120707231B02CA
:1086E000D2188300D25805231B07072424021B1924
:1086F00084001A51401C2028D3D310BD70B5054604
:108700000C46002C01D1072070BD20468107890F3F
:10871000002901D1012100E00021002901D1072019
:10872000F2E7A9480460AB4805700020A84908702A
:10873000A6490860A7480078142250430146A24881
:10874000006801F0D4FD0020C043A34988600620E2
:1087500001218140A14A116000BF012100F0F9F818
:108760000620012181409E4A116000BF0020CBE716
:10877000F8B504460D4616461F4693480068002883
:1087800001D10820F8BD002F01D10720FAE7904859
:10879000007890490978884201DB0420F2E72846F6
:1087A00030438B49097814225143874A126850504C
:1087B0008748007814214843834909684018456078
:1087C00083480078142148437F490968401886602F
:1087D0007F480078142148437B49096840180761A5
:1087E0007B48007820707A480078401C78490870EF
:1087F0002078FFF752FF0020C4E7F0B50246724828
:108800000068002801D10820F0BD7148007882423C
:1088100001DB0720F8E700206A4BD8636848046949
:108820006A480068002802D158066B4B5860012046
:108830009040664B1B681843644B1860002314205B
:108840005043614D2D684019C360002142E001236F
:108850008B401846142353435B4D2D68EB5803405F
:10886000002B36D025460540002D02D003231B04E3
:108870000EE001235B0414255543534E3668AD19B1
:10888000ED680543142656434F4F3F68F619F560CF
:1088900005252D0707263602AD198E00AD59032692
:1088A0003604B5430526360707273F02F6198F0021
:1088B000F55105252D0707263602AD198E00AD5955
:1088C0001D430526360707273F02F6198F00F5518D
:1088D00000BF491C2029BAD3002095E710B50446F3
:1088E00039480068002801D1082010BD38480078B8
:1088F000844201DB0720F8E72046FFF7CEFE012087
:10890000A04032490968814330480160006800286E
:1089100003D10120C007304988600020E5E710B589
:10892000024629480068002801D1082010BD2848C7
:108930000078824201DB0720F8E714205043224CE4
:10894000246803191E4800691C6820400860002044
:10895000ECE710B5002819DA224A03071B0F083B81
:108960009B089B00D2588307DC0EFF23A3409A4349
:108970008B071B0E8407E40EA3401A43194B040710
:10898000240F083CA408A4001A5118E0144A032339
:108990001B02D21883089B00D2588307DC0EFF23EA
:1089A000A3409A438B071B0E8407E40EA3401A438F
:1089B0000B4B032424021B198408A4001A5110BD78
:1089C00000050050406100406C210020642100201F
:1089D00069210020682100200063004080E200E05F
:1089E00000E100E01CED00E004460D4616467F2243
:1089F0003146094801F07EFC002107486030C1770C
:108A000006490D800648046008460088044800684E
:108A100072B600BFFEE70000BC27002070210020D6
:108A20007421002010B50446C948FBF7ABFB0020B9
:108A3000C849087008464470012302227C2000F0D7
:108A4000F9FA10BD10B5C248FBF79CFB0020C149E4
:108A5000087080204870012302227C2000F0EAFA8E
:108A6000002800D110BD01231222BB497C2000F058
:108A7000E1FA002800D1F5E7C020B649487001238B
:108A800002227C2000F0D6FA002800D1EAE7012378
:108A90001222B1497C2000F0CDFA002800D1E1E794
:108AA0000120DFE710B50446A948FBF76BFB002067
:108AB000A8490870702020434870012302227C20BE
:108AC00000F0B8FA10BD10B5A148FBF75BFB002021
:108AD000A04908700C204870012302227C2000F07D
:108AE000A9FA10BD10B59A48FBF74CFB0020994934
:108AF000087008204870012302227C2000F09AFAB6
:108B000010BD30B50346954C002901D1002030BD81
:108B10001878934DE8615B1C0120924DA86022E01B
:108B200000BF9148C069002802D1601E0400F8D13E
:108B3000002C0CD100208C4D68600120894D6861AB
:108B400000BF894840680028FBD00020DFE70020F4
:108B5000854DE861481EC0B2010000D104E01878DC
:108B60007F4DE8615B1CDBE700BF002A0AD00020D4
:108B70007D4D686001207B4D686100BF7A48406888
:108B80000028FBD00120C2E7F8B57C24002000902B
:108B90000425002600276010714980318860324624
:108BA00029466846FFF7ADFF074600206E49486238
:108BB0003846F8BD10B500F047F9002800D110BDC7
:108BC000FFF7E2FF3820FFF72DFF002800D1F6E77E
:108BD0003920FFF727FF002800D1F0E71420FFF726
:108BE00021FF002800D1EAE70820FFF75BFF0028FB
:108BF00000D1E4E75F20FFF715FF002800D1DEE792
:108C00006A20FFF70FFF002800D1D8E75748FBF78D
:108C1000B9FAFFF758FF002800D1D0E7FFF712FF9D
:108C2000002800D1CBE70620FFF7FCFEC7E7FFB521
:108C300081B0064617461D46002046490870E819CF
:108C400080304870012302227C2000F0F3F90028D4
:108C500001D105B0F0BD1220401BC2B201233E4934
:108C60007C2000F0E7F9002800D1F2E70020394924
:108C70000870E81980304870012302227C2000F03F
:108C8000D9F9002800D1E4E74020324908700024D7
:108C900008E0102C00D108E031782E4A601C1154F5
:108CA000761CC4B202988442F3DB00BF601CC2B2DF
:108CB000012328497C2000F0BDF9CAE770B50446BD
:108CC00001231A4623497F2000F0B4F9002800D17F
:108CD00070BD204801781D258D43E807C00F00288E
:108CE00003D00020C043207008E010202840002856
:108CF00002D00120207001E00020207004202840D4
:108D0000002802D00120607009E0082028400028D7
:108D100003D00020C043607001E00020607001209B
:108D2000D6E738B5044601231A4669467F2000F08D
:108D300081F9002800D138BD68460078C043C1B22F
:108D4000009168460078C006C00E20700120F2E74E
:108D5000102700003C28002078210020204E000031
:108D6000004500400040004000410040400D03002D
:108D7000F8B5C24805680020C04908600805072109
:108D800009024018066EBE48052109070722120293
:108D9000891808660520000711464018406E0090AB
:108DA000B748052109078918486600BF0120400619
:108DB000B449886000BF00BF4010886000BF042035
:108DC000FBF7F0F9AF4800698001C00F002807D019
:108DD000AC480069C001C00F002801D0012422E086
:108DE0000024122719E000BF01200006A549C86031
:108DF00000BF0420FBF7D6F900BF01200006A149FF
:108E0000886000BF0420FBF7CDF99E48006980010F
:108E1000C00F002801D0012403E038467F1E00283F
:108E2000E1D100BF00BF052000070721090240185B
:108E3000066605210907072212028918009848666C
:108E40008E4805602046F8BD10B58D48401E0521AE
:108E500009070722120289180866052109078918DF
:108E60004866002088498860C86118208349886066
:108E70001920C8603320C0044862834838308349D1
:108E800008618148E43882495122120189184860FA
:108E900001207E498860052078490860FFF768FF57
:108EA00010BDF8B504460D4616467A4F002D01D187
:108EB0000020F8BD20787149C861641C0120764902
:108EC000886031E000BF7048C069002806D16E4854
:108ED000406A002802D1781E0700F4D1002F03D089
:108EE0006948406A002813D00020674948626349F6
:108EF00008606A49C8630520FBF754F901206749F7
:108F0000C86305205D490860FFF79EFF0020D0E799
:108F100000205D49C861681EC0B2050000D104E0B0
:108F200020785649C861641CCCE700BF002E0AD0E7
:108F300000205549486001205749486100BF524808
:108F400040680028FBD00120B3E7F8B505460C4681
:108F50001746504E002C01D10020F8BD012C07D13E
:108F60004D4814304A49512212018918486006E0E0
:108F700049481C3046495122120189184860012095
:108F80004249486000204049886001204249086009
:108F900041E000BF3C488068002806D13A48406A5A
:108FA000002802D1701E0600F4D1002036498860E6
:108FB000002E03D00846406A002813D00020324912
:108FC00048622E4908603549C8630520FBF7EAF876
:108FD00001203249C863052028490860FFF734FFA3
:108FE0000020BAE72548806928706D1C601EC0B259
:108FF0000446012806D1284814302549512212017F
:1090000089184860002C00D106E01420FBF7CAF84C
:10901000012021490862BCE700BF00BF1A48406830
:109020000028FBD0002018494860012017498860BB
:1090300000BF92E7F8B504460E4615461F460020CD
:109040000090002D18DDFFF793FE002814D060106B
:109050000A4980318860E007C00F002806D03A46F0
:1090600029463046FFF771FF009005E03A46294651
:109070003046FFF716FF00900098F8BD004500400D
:109080000D060000000500500041004000F50140C1
:1090900000F00140204E000000400040C04F004062
:1090A000002314214143FC4A53541421414389189D
:1090B0004B8003231421414389188B600023142122
:1090C00041438918CB601421414389180B61142155
:1090D000414389188B80704710B50020EF49088004
:1090E000EF490860EC49091F087048708870002437
:1090F00003E02046FFF7D4FF641C1E2CF9D310BDFB
:10910000FFB583B004460F4615460326E4480068C1
:1091100000280BD1002D06D10698002803D102208B
:10912000DF49086002E00120DD490860DC48006892
:10913000030001F0ADFA07FD05314E84BAD7FD00FA
:10914000D8484069401C002808D001221207126943
:1091500091B2D44A506901F003F902E001200007FE
:109160004069401E01210907096989B248430290FC
:109170000120000700690004820C0120000700693B
:1091800080B278430146029851DF0646002E02D194
:109190000220C3490860D0E0384650DF0646002E62
:1091A00016D1002D11D1069800280AD12078042864
:1091B00003D10720BA4908600AE00520B8490860D1
:1091C00006E00420B649086002E00320B4490860C4
:1091D000B3E0B4484069401C002808D001221207BF
:1091E000126991B2AF4A506901F0BAF802E0012069
:1091F00000074069401E01210907096989B24843F7
:10920000012109070290096989B2794308462A4673
:10921000029951DF0646002E10D1069800280AD187
:109220002078042803D106209D49086006E0052027
:109230009B49086002E00420994908607DE0994854
:109240004069401C002808D001221207126991B21F
:10925000944A506901F084F802E001200007406957
:10926000401E01210907096989B24843A900401835
:1092700061884018012109070290096989B2794380
:10928000AA00891862888818069A029951DF064652
:10929000002E09D12078042803D1062080490860D7
:1092A00002E005207E49086047E0012000070069D0
:1092B00080B27843AB00C0180290608882082169B0
:1092C000029851DF0646002E0BD1002D06D10698DC
:1092D000002803D107207249086002E00620704987
:1092E00008602AE06F484069401C002808D001222D
:1092F0001207126991B26B4A506901F031F802E02D
:10930000012000074069401E01210907096989B24F
:109310004843019001200007006981B2019801F0E3
:109320001FF8029050DF0646002E04D1072000E00F
:1093300002E05B49086000E000BF00BF304607B0B4
:10934000F0BDF0B585B00F275348001F00781421F9
:10935000484351494418E5682078022804D004287D
:1093600023D005286FD16FE0206903904B48008817
:1093700086026088801B0490039880190390A0885F
:1093800080194519012189020498884206D204985F
:1093900082082846039951DF074605E0FF22013283
:1093A0002846039951DF074681E0A06800013E4945
:1093B000401800890490A06800014018408903907B
:1093C000A06800014018406802900298A84205D1A8
:1093D0000399049848436188884202D0A068042811
:1093E0000DD101200007006981B2284600F0B8FFC6
:1093F0002A4909884618304650DF074622E00120F6
:109400000007006981B2284600F0AAFF0646012045
:109410000007006980B27043281A8008019001207B
:109420000007006980B2711C484361884919401ADD
:109430008008009031462046009B019AFFF760FEAD
:10944000074600BF33E031E001200007006981B228
:10945000284600F085FF0646A08841190120000734
:10946000006980B27043081A80080490A0884019EF
:109470006188421801200007006980B2711C4843CE
:10948000801A8008039031462046039B049AFFF718
:1094900037FE07460BE000006028002094210020E2
:1094A0009821002000100010B82A002000BF00BF43
:1094B000002F02D10120FE498870384605B0F0BD6A
:1094C000FFB581B0064617460024F94840781E28AB
:1094D00037D0F7480078F64949784018C4B21E2CB6
:1094E00002DB20461E38C4B214206043F049091D37
:1094F0000E54142060434018076114206043411843
:10950000029805C8CA60886014206043E84A121DAA
:109510008018049941801420604380180A99818042
:109520000025101F8078002805D1FFF70AFF0546A7
:10953000112D00D10025DE484078401CDC494870E0
:1095400000E00425284605B0F0BDF8B50446D8482B
:10955000007814214843D649091D0E5C081F007885
:1095600014214843D249091D401880680001D1499F
:109570000D58CF48007814214843CD49091D4018A3
:109580004088091F0090097814225143C84A121DCF
:1095900089180B69111F097814225143C44A121DFE
:1095A00089180846083022463146A847F8BD10B54C
:1095B0000024BF484078002809DDFFF7C2FE0446BA
:1095C000002C04D0112C02D02046FFF7BEFF20460D
:1095D00010BDFEB505460026B548807801287DD12E
:1095E0000020B3498870B4480068082811D1022DC2
:1095F00003D10020B049086002E00020AF490870A4
:10960000FFF7D5FF0646002E02D03046FFF79DFF3C
:10961000FEBD022D02D0032D79D174E0A44800785C
:1096200014214843A249091D4418A5480088401C3C
:10963000A34908802078022807D1084600888002C4
:109640006188884201DB012000E000200746207885
:10965000052805D198480068072801D1012000E0BD
:10966000002002902078042805D19348006807283C
:1096700001D1012000E000200190207804280BD1C6
:109680008F48008880026188884205DB8A4800682C
:10969000002801D1012000E000200090029800285D
:1096A00007D10198002804D10098002801D1002F8B
:1096B0001FD00020804908603046FFF746FF7C49F4
:1096C0000878FFF7EDFC00207D4908807848407855
:1096D000401E774948700846007800E01AE0401CB8
:1096E0000870084600781E2803DB084600781E38FC
:1096F0000870FFF75CFF0646002E02D03046FFF7E9
:1097000024FF05E003E00D20FFF71FFF00E000BF8E
:1097100000BF00BF00BF7BE770B5FFF7DDFC002096
:109720006849088068484069401C002808D0012228
:109730001207126991B2644A506900F011FE02E00A
:10974000012000074069001F01210907096989B24A
:1097500048435E49086000205949088000BF0DE079
:1097600000210201534B99500201D21811810201CC
:10977000D21891810201D2185181401C0328EFD3E5
:1097800008204D49086050484069401C002808D016
:1097900001221207126991B24B4A506900F0E0FDB4
:1097A00002E0012000074069401E01210907096904
:1097B00089B24843064601200007006981B230465D
:1097C00000F0CEFD054650DF0446002C04D10120F8
:1097D0003749887039490870204670BDF8B504468D
:1097E0000D4600BF35480078002801D10820F8BD9B
:1097F00000BF002C01D10E20F9E7002D01D10E2071
:10980000F5E72068002801D10E20F0E7A0880121AB
:109810000907096989B2884202DCA088102801DAA8
:109820000720E4E7E08800281ED027484069401C54
:10983000002808D001221207126991B2224A506909
:1098400000F08EFD02E0012000074069401E01216A
:109850000907096989B24843E188A28851431B4A34
:1098600012688918884201D20720C0E72079800752
:10987000800F002801D00720B9E71248008803288C
:1098800001D10420B3E70F48008828600F48006822
:1098900068600C4909880901064A891868684860A7
:1098A00008490988090120685050A08805490FE03F
:1098B0005C280020B82A0020982100209621002052
:1098C000942100208C210020001000109021002005
:1098D0000988090189180881E088F849098809017F
:1098E000891848810027A688E1884E4300BF781C6C
:1098F00087B201200007006980B2B04205D2012082
:109900000007006980B2361A00E000260120000737
:10991000006980B2EA4909684018E94908600120F5
:109920000007006980B2B042E1D9E4480088000134
:10993000E44940188781E1480088401CDF490880DD
:10994000002054E73CB5034600BFDF4800780028FC
:1099500001D108203CBD00BF002B01D10E20F9E74A
:10996000002A01D10E20F5E71868032805D21868EF
:109970000001D44C2058002801D10720EAE75C6898
:10998000186801940090019C18680001CD4D4019A1
:109990000089484320180190009800012C460019C6
:1099A0004089009C2401641924896043009C24019F
:1099B000641964680019019CA04201D80720C9E716
:1099C000019C0098546010600020C3E7F8B504467D
:1099D0000E4615461F4600BFBB480078002801D13F
:1099E0000820F8BD00BF002E01D10E20F9E7002CA1
:1099F00001D10E20F5E72068032805D22068000178
:109A0000B0490858002801D10720EAE72068000182
:109A1000AC494018408921680901AA4A8918098976
:109A200048432168090189184968401861688842DB
:109A300001D80720D5E7002D06D020680001A149F4
:109A400040180089A84201DA0720CAE7E81921680E
:109A500009019C4A89180989884201DD0720C0E76D
:109A6000304600F050F9002804D0384600F04BF999
:109A7000002801D11020B4E7606800F044F9002804
:109A800001D11020ADE72B46324621460220009737
:109A9000FFF716FDA5E7F8B504460E4615461F4626
:109AA00000BF89480078002801D10820F8BD00BF18
:109AB000002E01D10E20F9E7002C01D10E20F5E790
:109AC0002068032805D2206800017E490858002834
:109AD00001D10720EAE7206800017A49401840894F
